{
  "_format": "hh-sol-artifact-1",
  "contractName": "Staking",
  "sourceName": "contracts/Staking.sol",
  "abi": [
    {
      "inputs": [
        {
          "internalType": "address",
          "name": "_stakingToken",
          "type": "address"
        }
      ],
      "stateMutability": "nonpayable",
      "type": "constructor"
    },
    {
      "inputs": [
        {
          "internalType": "address",
          "name": "token",
          "type": "address"
        }
      ],
      "name": "SafeERC20FailedOperation",
      "type": "error"
    },
    {
      "anonymous": false,
      "inputs": [
        {
          "indexed": true,
          "internalType": "address",
          "name": "user",
          "type": "address"
        },
        {
          "indexed": false,
          "internalType": "uint256",
          "name": "amount",
          "type": "uint256"
        }
      ],
      "name": "Staked",
      "type": "event"
    },
    {
      "anonymous": false,
      "inputs": [
        {
          "indexed": true,
          "internalType": "address",
          "name": "user",
          "type": "address"
        },
        {
          "indexed": false,
          "internalType": "uint256",
          "name": "amount",
          "type": "uint256"
        }
      ],
      "name": "Unstaked",
      "type": "event"
    },
    {
      "inputs": [
        {
          "internalType": "address",
          "name": "user",
          "type": "address"
        }
      ],
      "name": "getStakedBalance",
      "outputs": [
        {
          "internalType": "uint256",
          "name": "",
          "type": "uint256"
        }
      ],
      "stateMutability": "view",
      "type": "function"
    },
    {
      "inputs": [
        {
          "internalType": "uint256",
          "name": "amount",
          "type": "uint256"
        }
      ],
      "name": "stake",
      "outputs": [],
      "stateMutability": "nonpayable",
      "type": "function"
    },
    {
      "inputs": [
        {
          "internalType": "address",
          "name": "",
          "type": "address"
        }
      ],
      "name": "stakedBalance",
      "outputs": [
        {
          "internalType": "uint256",
          "name": "",
          "type": "uint256"
        }
      ],
      "stateMutability": "view",
      "type": "function"
    },
    {
      "inputs": [],
      "name": "stakingToken",
      "outputs": [
        {
          "internalType": "contract IERC20",
          "name": "",
          "type": "address"
        }
      ],
      "stateMutability": "view",
      "type": "function"
    },
    {
      "inputs": [
        {
          "internalType": "uint256",
          "name": "amount",
          "type": "uint256"
        }
      ],
      "name": "unstake",
      "outputs": [],
      "stateMutability": "nonpayable",
      "type": "function"
    }
  ],
  "bytecode": "0x60a060405234801561001057600080fd5b50604051610b8c380380610b8c833981810160405281019061003291906100cf565b8073ffffffffffffffffffffffffffffffffffffffff1660808173ffffffffffffffffffffffffffffffffffffffff1681525050506100fc565b600080fd5b600073ffffffffffffffffffffffffffffffffffffffff82169050919050565b600061009c82610071565b9050919050565b6100ac81610091565b81146100b757600080fd5b50565b6000815190506100c9816100a3565b92915050565b6000602082840312156100e5576100e461006c565b5b60006100f3848285016100ba565b91505092915050565b608051610a67610125600039600081816102320152818161032901526103960152610a676000f3fe608060405234801561001057600080fd5b50600436106100575760003560e01c80632e17de781461005c5780633a02a42d1461007857806360217267146100a857806372f702f3146100d8578063a694fc3a146100f6575b600080fd5b6100766004803603810190610071919061065f565b610112565b005b610092600480360381019061008d91906106ea565b6102c7565b60405161009f9190610726565b60405180910390f35b6100c260048036038101906100bd91906106ea565b61030f565b6040516100cf9190610726565b60405180910390f35b6100e0610327565b6040516100ed91906107a0565b60405180910390f35b610110600480360381019061010b919061065f565b61034b565b005b60008111610155576040517f08c379a000000000000000000000000000000000000000000000000000000000815260040161014c90610818565b60405180910390fd5b806000803373ffffffffffffffffffffffffffffffffffffffff1673ffffffffffffffffffffffffffffffffffffffff1681526020019081526020016000205410156101d6576040517f08c379a00000000000000000000000000000000000000000000000000000000081526004016101cd90610884565b60405180910390fd5b806000803373ffffffffffffffffffffffffffffffffffffffff1673ffffffffffffffffffffffffffffffffffffffff168152602001908152602001600020600082825461022491906108d3565b9250508190555061027633827f000000000000000000000000000000000000000000000000000000000000000073ffffffffffffffffffffffffffffffffffffffff166104819092919063ffffffff16565b3373ffffffffffffffffffffffffffffffffffffffff167f0f5bb82176feb1b5e747e28471aa92156a04d9f3ab9f45f28e2d704232b93f75826040516102bc9190610726565b60405180910390a250565b60008060008373ffffffffffffffffffffffffffffffffffffffff1673ffffffffffffffffffffffffffffffffffffffff168152602001908152602001600020549050919050565b60006020528060005260406000206000915090505481565b7f000000000000000000000000000000000000000000000000000000000000000081565b6000811161038e576040517f08c379a000000000000000000000000000000000000000000000000000000000815260040161038590610953565b60405180910390fd5b6103db3330837f000000000000000000000000000000000000000000000000000000000000000073ffffffffffffffffffffffffffffffffffffffff16610500909392919063ffffffff16565b806000803373ffffffffffffffffffffffffffffffffffffffff1673ffffffffffffffffffffffffffffffffffffffff16815260200190815260200160002060008282546104299190610973565b925050819055503373ffffffffffffffffffffffffffffffffffffffff167f9e71bc8eea02a63969f509818f2dafb9254532904319f9dbda79b67bd34a5f3d826040516104769190610726565b60405180910390a250565b6104fb838473ffffffffffffffffffffffffffffffffffffffff1663a9059cbb85856040516024016104b49291906109b6565b604051602081830303815290604052915060e01b6020820180517bffffffffffffffffffffffffffffffffffffffffffffffffffffffff8381831617835250505050610582565b505050565b61057c848573ffffffffffffffffffffffffffffffffffffffff166323b872dd868686604051602401610535939291906109df565b604051602081830303815290604052915060e01b6020820180517bffffffffffffffffffffffffffffffffffffffffffffffffffffffff8381831617835250505050610582565b50505050565b600080602060008451602086016000885af1806105a5576040513d6000823e3d81fd5b3d9250600051915050600082146105c05760018114156105dc565b60008473ffffffffffffffffffffffffffffffffffffffff163b145b1561061e57836040517f5274afe70000000000000000000000000000000000000000000000000000000081526004016106159190610a16565b60405180910390fd5b50505050565b600080fd5b6000819050919050565b61063c81610629565b811461064757600080fd5b50565b60008135905061065981610633565b92915050565b60006020828403121561067557610674610624565b5b60006106838482850161064a565b91505092915050565b600073ffffffffffffffffffffffffffffffffffffffff82169050919050565b60006106b78261068c565b9050919050565b6106c7816106ac565b81146106d257600080fd5b50565b6000813590506106e4816106be565b92915050565b600060208284031215610700576106ff610624565b5b600061070e848285016106d5565b91505092915050565b61072081610629565b82525050565b600060208201905061073b6000830184610717565b92915050565b6000819050919050565b600061076661076161075c8461068c565b610741565b61068c565b9050919050565b60006107788261074b565b9050919050565b600061078a8261076d565b9050919050565b61079a8161077f565b82525050565b60006020820190506107b56000830184610791565b92915050565b600082825260208201905092915050565b7f43616e6e6f7420756e7374616b65203000000000000000000000000000000000600082015250565b60006108026010836107bb565b915061080d826107cc565b602082019050919050565b60006020820190508181036000830152610831816107f5565b9050919050565b7f496e73756666696369656e74207374616b65642062616c616e63650000000000600082015250565b600061086e601b836107bb565b915061087982610838565b602082019050919050565b6000602082019050818103600083015261089d81610861565b9050919050565b7f4e487b7100000000000000000000000000000000000000000000000000000000600052601160045260246000fd5b60006108de82610629565b91506108e983610629565b9250828203905081811115610901576109006108a4565b5b92915050565b7f43616e6e6f74207374616b652030000000000000000000000000000000000000600082015250565b600061093d600e836107bb565b915061094882610907565b602082019050919050565b6000602082019050818103600083015261096c81610930565b9050919050565b600061097e82610629565b915061098983610629565b92508282019050808211156109a1576109a06108a4565b5b92915050565b6109b0816106ac565b82525050565b60006040820190506109cb60008301856109a7565b6109d86020830184610717565b9392505050565b60006060820190506109f460008301866109a7565b610a0160208301856109a7565b610a0e6040830184610717565b949350505050565b6000602082019050610a2b60008301846109a7565b9291505056fea26469706673582212204c062f849d3f6601f267b514d337dfba30f7daef67abf37c1a1c7aa658a90fbd64736f6c63430008140033",
  "linkReferences": {},
  "deployedLinkReferences": {}
}